:020000040000FA
:1000000001C0D8C0112480914000882369F0282FB6
:1000100030E083FD03C02C7F232B31F4809340001C
:100020008CBB80E0AFD0ECC0A895009A089A1092E3
:10003000E205809182128370813029F58CE590E091
:10004000809308089093090881E080930B0883E06F
:10005000809307081092050880EC8093060888E0DA
:1000600091D0079A87E0815089F4A8950DE983E043
:10007000D82E7CD08134F1F479D0182F8CD012385E
:1000800089F480E013C083E790E0DACF179A2EEC72
:1000900036E5A8959091040897FDE8CF21503109E5
:1000A000C1F7E1CF89E0113809F083E058D080E151
:1000B00056D0DFCF823419F484E175D0F8CF85347F
:1000C00011F485E0FACF853531F450D0C82F4ED0E9
:1000D000D82F61D0ECCF863519F484E064D0D1CF2D
:1000E0008436B9F443D042D0182F40D0863479F406
:1000F000D05C3CD0888321961150D9F74CD004BFF6
:10010000D0920010809102108370E1F7D0CFDC5EB6
:10011000F0CF843791F42AD029D0182F27D0F82E89
:100120003AD086E4F81207C0D05C8881219617D0B7
:100130001150D9F7BCCFDC5EF8CF853751F42BD006
:10014000809100110CD08091011109D08091021191
:10015000ADCF813509F0BDCF81E014D0BACF9091F9
:10016000040895FFFCCF809302080895809104084D
:1001700087FFFCCF909101088091000892FD01C09B
:10018000A89508959091010190FDFCCF98ED94BF42
:10019000809300010895EADF803219F081E0F2DFF8
:1001A000FFCF84E1DCCFCF93C82FE0DFC150E9F768
:1001B000CF91F1CF683048F48DE984BF609300108F
:1001C000809102108370E1F70895FC014083089547
:1001FE0000090C94A90D0C94D10D0C94D10D0C94F6
:10020E00D10D0C94D10D0C94D10D0C940E270C9491
:10021E00D10D0C94D10D0C94D10D0C94D10D0C94D8
:10022E00D10D0C94D10D0C94D10D0C9487270C94F8
:10023E002A280C94D10D0C9459270C9433270C9426
:10024E00D10D0C949F260C94D10D0C94D10D0C94C1
:10025E00D10D0C94C4260C942D260C94D10D0C9417
:10026E00D10D0C94D10D0C9455260C94D10D0C94EB
:10027E00D10D0C94D10D0C94D10D0C94E9260C9447
:10028E007A26120004040505040506121C00FB1450
:10029E00F915FB0000000001B720060060A4012A3A
:1002AE001CCFEDA56DF0ECC48C115162448946E96A
:1002BE000E9E23418A0C5564C409012B103166A48D
:1002CE006FF87CF7E00373C3E73B002C1047F5A2F1
:1002DE0087123264261A33689028002D076F28A6DD
:1002EE00E1072E0A853CA463848A11002F246D2F0A
:1002FE00A3754A9243470E1D4972E8C8A123498E41
:10030E00243974E4D09124878E1C3A92E4D0A10053
:10031E003019AD2EA4A9589A25A346903A67FFDD51
:10032E002912A386AC495608003112AD32A44D24D1
:10033E00B1539809193AFF570F1E24321BAE2AA447
:10034E00AB5CA225A4488C1B316EC4B8B143879216
:10035E00A4BF7CF08001331FAF2AA4CB5C2236A44D
:10036E00888C1B3C2D317407D1161E3D78DA732410
:10037E005C344A04003423AE2AA4916485E6CE8D03
:10038E00184662D8905144468D19340DA131A3867A
:10039E003C78C072EC406418351BAF2AA4850D372B
:1003AE0083679C6C119B418509CF45486424DAB064
:1003BE004204003625AE2EA4CF18AA440549121DBC
:1003CE003B740CA1114898142241ECA0C1732386F2
:1003DE00912044848D324300371DAE2AA4E177E785
:1003EE00468C1B3B94E8D8A144C70E253A7628D1FB
:1003FE00A144C70E033824AE2EA4A95CA235A38651
:10040E008C1B316EC4B821A3C62C4AA5A64809621E
:10041E00076D88A8041B6586003926AE2EA4A95C3C
:10042E00A235949022316EC4B8EB5095206304C56A
:10043E0090238388101D4A748CA0226B9299033AE4
:10044E000FE53DA463848AF1D08D50310200000087
:10045E000004FFFF0000BF00020304040204050BAA
:10046E0013FFFB08FE08FE015202C10871200500B1
:10047E00E60421088223E590620122073377255294
:10048E0005230F77A1358AA1B41985661443690037
:10049E00240DA59E359E52F4329252730825128772
:1004AE00224E96A4508AC1188EC1488CA25902269B
:1004BE000F87226E9644499E255392C64900270601
:1004CE0031F76400280AA31A3592229DA118290C2F
:1004DE00A31A251443492B9242002A07333625CA04
:1004EE00012B0B56A6558644538644002C0742DA40
:1004FE008492002D06146E85002E0622E284002FB3
:10050E000B84223D19877118C700300A85A26D929F
:10051E00F8922600310783A3ADD207320985A26D6A
:10052E00522BB50B330C85A26D528B322453D20451
:10053E00340F86A21D8A21798CA450B265480235EB
:10054E000C85A2E5966968A4A40900360C85A26DF7
:10055E0092684A62491300370A85A2A556CAA2AC10
:10056E0004380C85A26D9228699258D204390C85F4
:10057E00A26D9258124D4913003A0762E284860822
:10058E003B0982DA84862809003C07546655522BB3
:10059E003D0735AAA5060B3E085466455629013F70
:1005AE000B85A26D528B6A19290240159ADEBE96F2
:1005BE00C1A4148949290EA530154A728C550341E0
:1005CE000F8722768666499444493A645A00420B54
:1005DE0086E2A512C94B645E004310872296146909
:1005EE0068066550862251A400440B86E2859494D9
:1005FE00BC241200450985A2E5966F7501460A8551
:10060E00A2E59629591B00470F87229614696806A2
:10061E00C55A12C52900480A86E245641E23A70062
:10062E00490682E2E4214A0985A25D6F4A9A004B8F
:10063E000E87E2459494F40CD192A892054C08854D
:10064E00A245D677014D0F89A246066BFBB252D456
:10065E00448664284E0C8722462E4B2AA222B22DA7
:10066E004F0B87227696D4DC927A04500D86E2A543
:10067E001299970CC9900C01510C971E7696D45C6A
:10068E0091368D0A520A86E2A5129997C814530D17
:10069E0086E28D126B88866852A200541086E2C5DF
:1006AE009421199221199221191201550986E245B8
:1006BE00E4A74401560F872246A625A5244AF20C2C
:1006CE00CD600C57128AE24614499154694ACA23E6
:1006DE001665481401580D872246A625F50CCD92B5
:1006EE009A165910886246866848A94D83322CC3E3
:1006FE0032005A0B86E2C58664F5AC860C5B08A305
:10070E001AA5D2AF015C0D8422258EA13886E2187F
:10071E008A035D08A31A65D2AF025E0844724D2AA1
:10072E00C5005F06169AC500600622FE240C610AFB
:10073E0066A26D0C454AA724620A85A245962989B0
:10074E00CB0263096462AD1A55D100640985A25DBE
:10075E0065714904650B65A26D920E59922600666D
:10076E000A8521751249592700670B859A4D9AB84B
:10077E00245A9A00680A85A2459629899700690726
:10078E0082E2443C0A6A09A3D94C86F445016B0DFA
:10079E0086A24586644845CEA4A4146C0682E2E483
:1007AE00216D0D686226D2454994444994026E0823
:1007BE0065A22552F1126F0A65A26D92B8A40900C6
:1007CE00700A859A25527159B20C710A859A4D9A02
:1007DE00B8245A017209642225AA444D00730B6590
:1007EE00A26D52CD10254D00740A84214D942851CE
:1007FE005B00750865A245E2A50A760A65A2456208
:10080E0049C93904770E6722468AA8888A34255149
:10081E009200780B66E245946899124901790B852E
:10082E009A45E292485914017A0865A2A516B50BAD
:10083E007B0AA45A551255B2A82D7C06A1DBE418EA
:10084E007D0BA45A4516D592A825027E0725AE4DDE
:10085E000B00A00500E604A108821B458E0E01A226
:10086E000E859E3D9CA4298C42491A6300A30C85DB
:10087E00A27592229194559300A40C66A625862209
:10088E003227154301A50F86E22586646894C2C8F7
:10089E00144D1100A606A1DB8424A70EA59A6D1295
:1008AE00E92924A399942600A80613FE240AA91266
:1008BE0088A3968EA1A42A8CA41812A73414930090
:1008CE00AA08536F6594E201AB0936E64DA244497E
:1008DE0000AC0935EBA586622800AD06146E8500C6
:1008EE00AE1388A3968EA114258591344A61948601
:1008FE00621200AF0613FE6400B00633366D05B10A
:10090E000C76A2558644538664A401B20743F26C5A
:10091E004A0DB30843F2648A2700B40622FE4C0245
:10092E00B50A859A45E255CD3200B614A69AED88E1
:10093E00A2299A42298EE2288EE2288E2200B7063C
:10094E0012EE4400B80622DA6C00B90642F26C4A86
:10095E00BA07536F85A207BB0936E64512254A0230
:10096E00BC1388622E0EE5640C85311CC6A11C5189
:10097E00311401BD1087622E8EE4301DC6602446F0
:10098E00C9CC01BE138862668CD3505A8CE1300EEE
:10099E00E5888AA10800BF0C859A5546CAA25A92CC
:1009AE002600C012B7223646C5D833344BA2244A8D
:1009BE00D221D302C113B7221E8AC1187B86664983
:1009CE009444493A645A00C213B7223E06A31873E0
:1009DE008666499444493A645A00C313B7223E8A44
:1009EE00A318738666499444493A645A00C411A701
:1009FE0022368A31676896444994A443A605C514E5
:100A0E00B7223E06A3188CC1199A25511225E990DA
:100A1E006901C60F89A2F6A4213524556A5B94C5D7
:100A2E0002C713A71A96146968066550862251A448
:100A3E00A1189401C80CB5A22D0663D42DDFEA02CD
:100A4E00C90AB5A23D8DBAE55B5DCA0CB5A2358E5D
:100A5E0062F8966F7501CB0AA5A22D0DDFF2AD2EB1
:100A6E00CC09B2E2240C8F4300CD08B2E24C3E0E0C
:100A7E0001CE08B3E12C1BD21FCF09A4E1248C4177
:100A8E00FD05D00E87E18D9644D1524AA2A42401D1
:100A9E00D110B7223E8AA3182D9725155111D916BC
:100AAE00D20FB7223E46C598B3A4E696D42300D300
:100ABE000FB7221E8AC1187B96D4DC927A04D40F0B
:100ACE00B7223E06A3187396D4DC927A04D50FB7DC
:100ADE00223E8AA3187396D4DC927A04D60EA722ED
:100AEE00368A316749CD2DA94700D70A56A64594B7
:100AFE0068991205D80F8722768A34AB888A4A49BC
:100B0E00158D00D90CB6E2358663A4C84F8902DA7A
:100B1E000DB6E21D8AA11829F253A200DB0CB6E233
:100B2E003586D248919F1205DC0CA6E22D8C5122FF
:100B3E003F250A00DD14B8621E8CE1185386684802
:100B4E00A94D83322CC33200DE0D86E245862A91F2
:100B5E0079C9900C01DF0B85A26D125791B8150162
:100B6E00E00E96A2358663F4188A944E4900E10E83
:100B7E0096A23D8662AC3114299D9200E20E96A299
:100B8E003586D2E83114299D9200E30E96A2350ADD
:100B9E00A3183D8622A55312E40C86A22D8D1E436A
:100BAE0091D22909E50F96A23586D2500C8DA14817
:100BBE00E99404E60D6862CE0A25E99064496B0259
:100BCE00E70B845AAD1A55D1184A00E80E95A22D9E
:100BDE000663E4241DB2244D00E90D95A23D8D9CC3
:100BEE00A44396A40900EA0E95A2358E62D4241D64
:100BFE00B2244D00EB0D85A22D8D9AA44396A40927
:100C0E0000EC0892E2240C8F02ED0792E24C3E0AB1
:100C1E00EE0993E22C5BD20B00EF0983E2248A25C6
:100C2E00BD00F00D95A22D2946F12471491300F156
:100C3E000A95A22D372A52F112F20D95A22D0663B6
:100C4E00E42471491300F30B95A23D8D9C242E696B
:100C5E0002F40D95A2358E62D42471491300F50C61
:100C6E0095A22D377292B8A40900F60B85A22D8D90
:100C7E009A242E6902F70A56A65546DA481100F84C
:100C8E000D67A1758A94A5244A523402F90B95A2D8
:100C9E002D066394C44B15FA0A95A23D8D9278A940
:100CAE0002FB0B95A2358E6258E2A50AFC0A85A2BC
:100CBE002D0D4BBC5401FD0DB59A3D8D92B82452AD
:100CCE00164500FE0CA59A459629895C59B20CFF73
:100CDE000DA59A2D0D4B5C12298B220000000008E9
:100CEE00016405B2FFFF010011A72276C69CA1592F
:100CFE00122551920E991601010D86A26D468FA1F5
:100D0E0048E99404010213B722360DC99833344BC7
:100D1E00A2244AD221D30201030F96A22D8C65F490
:100D2E00188A944E4900010413A71A7686664994D0
:100D3E0044493A645A8E61110001050E869A6D0C73
:100D4E00454AA724C6A008010615B7221E8AC11857
:100D5E009B146968066550862251A40001070B9406
:100D6E0062358DAA465534010815B7223E06A318E2
:100D7E0093146968066550862251A40001090C94EB
:100D8E0062351583D5A88A06010A13A7223EC62608
:100D9E00451A9A411994A148142900010B0B84623B
:100DAE003586AB51150D010C15B722368AC1189B2D
:100DBE00146968066550862251A400010D0C9462D8
:100DCE002D19C3D5A88A06010E0FB6E22D0DC568E2
:100DDE005252F2924800010F1288625E9225899C4F
:100DEE00A4482DC9920CD10001100F87E18D9644B5
:100DFE00D1524AA2A4240101110B85A25DA22C2E70
:100E0E00890001120BA5A26D866FF9561701130DFD
:100E1E0085A26D464DD2214BD20401140DB5A225EB
:100E2E000C65D42DDFEA0201150F95A22D0C65D4A9
:100E3E00241DB2244D0001160BA5A23546DDF2ADE0
:100E4E002E01170D85A235464ED2214BD204011824
:100E5E000DA59AE5966F751543220001190E859A18
:100E6E006D920E5992E6189200011A0CB5A22D1D24
:100E7E00A36EF95617011B0E95A22D1D2327E9907F
:100E8E00256902011C14B7223E06A3189314696843
:100E9E0006C55A12C52900011D0FB59A358E6294EA
:100EAE00347149B43401011E13B722360DC998A40A
:100EBE0048433328D692284E01011F0FB59A2D0CA8
:100ECE006594347149B43401012011A7223EC6261F
:100EDE00451A9A41B19644710A01210EA59A3546DA
:100EEE004A1397444B1300012217D70E96146968C4
:100EFE0006C55A12C529C69241198EC11800012382
:100F0E0010D59A3D0DC9324A9AB8245A9A00012436
:100F1E000EB6E23D86D22891798C9C0201250EB543
:100F2E00A22D8E62942C53122F0101260B86E245C0
:100F3E003CC663E41401270A86A14D664AFA0701EE
:100F4E00280CB4E12C926258D42F0001290C94E1A4
:100F5E002C926258D40B00012A0AA3E26496F40B79
:100F6E0000012B0983E26496F402012C0CB4E124F7
:100F7E008C6458D42F00012D0C94E1248C6458D429
:100F8E000B00012E08A2DAE43109012F09A2DA447E
:100F9E003C2C01013009A2E22C3C0E01013107620A
:100FAE00E2E428013213886246866888866888865D
:100FBE00688892C8090001330DA59A459241892F80
:100FCE0059940001340DB5A23D152365DD9434010D
:100FDE0001350AB3D92C1BD21705013617D7CE45CA
:100FEE009494F40CD192A89265B40CCA700CC610ED
:100FFE0000013715D68E4586644845CEA4A494913B
:10100E0032248331140301380C66A24592C8999498
:10101E00940201390BB5A2358E91B2BE0B013A097D
:10102E00B2E24C3E0E01013B0DD58E45D6770DAB8F
:10103E00A13806013C0AD2CEE421521200013D1322
:10104E0088624686688806672892611996E11A00BA
:10105E00013E0B85A245624E91AC0D013F12886296
:10106E0046866558866558866858866B0001400A24
:10107E0085A245D645AB0101411086A14D86644837
:10108E0086C6199221192A01420A84E14C549A5AB1
:10109E0000014311B7221E8AC1184B2E4B2AA222E1
:1010AE00B22D01440B95A23D8D8A54BC040145140A
:1010BE00D70E462E4B2AA222B22D63C9A00CC760B2
:1010CE000C01460FB58E2552F19251B20CC521007E
:1010DE00014711B722368AC1184B2E4B2AA222B2D3
:1010EE002D01480C95A22D1DA322152F0101491388
:1010FE008862468665544A0A2559922559922501D9
:10110E00014A11A71A462E4B2AA222B22D8332244F
:10111E0001014B0C859A2552F192450900014C0EA6
:10112E00A72276C69C2535B7A41E01014D0C85A2BB
:10113E006D464D12973401014E10B722360DC998E7
:10114E00B3A4E696D42300014F0E95A22D0C65D4C0
:10115E002471491300015010B7223E8AA3187396CA
:10116E00D4DC927A0401510D95A235CA464D1297E0
:10117E00340101521089A2F6528BB278CAA20CA980
:10118E00C10301530E69A26E254AE4298B92B40263
:10119E0001540EB6E23D86627425322F9129015517
:1011AE000B9422350D4795A809015612D6CEA512DD
:1011BE009997C8949132248331140301570EB40EBB
:1011CE0025AA446D5894C3180001580FB6E22D0D90
:1011DE00C5E84A645E22530001590D9422250A6324
:1011EE0038AA444D00015A11B6E23D86622C4AAC33
:1011FE00211AA2498902015B0E95A23D8D9C5433A2
:10120E0044491300015C11B6E23586D2684AAC211E
:10121E001AA2498902015D0F95A2358E62D4A49A55
:10122E00214A9A00015E11A6DA8D126B88866852E9
:10123E00A2A1181201015F0D859A6D52CD1025CD18
:10124E00B108016012B6E2358AA1184D89354443C2
:10125E003429510001610E95A22D1D2327D50C5165
:10126E00D204016214A6DAC5942119922119922191
:10127E001992C118120101630DA4194D9428515BE6
:10128E000C2500016415B6E2358AA11869CA900CC6
:10129E00C9900CC9900C890001651187E14D9444E9
:1012AE0033124319944119960101661086E2C594D2
:1012BE0021999621199221110001670C84214D94D8
:1012CE00288912650101680EB6E2350AA31829F2C3
:1012DE0053A20001690C95A235CA86255EAA0001AB
:1012EE006A0CA6E2754689FC942800016B0B85A258
:1012FE006D86255EAA00016C0DB6E22D8C65A4C824
:10130E004F8902016D0C95A22D0C6558E2A50A01BC
:10131E006E0FC6E23D86D2508C14F9295100016F32
:10132E000DA5A2358EE21825F1520501700EB6E21A
:10133E00350AA31829F253A20001710C95A235CAE1
:10134E0086255EAA0001720CA6DA45E4A744C7A062
:10135E000801730C859A45E2A50A634802017418C8
:10136E00BAE21E8C91518C4B14499154694ACA238E
:10137E00166548140101751397223E06A3182D45D4
:10138E005444459A92284900017615B8621E8AE1A6
:10139E0028C692211A526AD3A00CCBB00C01770F3B
:1013AE00B59A358E6258E29248591401017813A805
:1013BE00223E8AB164888694DA3428C3322C030123
:1013CE007910B6E21D8AA1186943B27A5643060116
:1013DE007A0B95A23D8DAA45ED02017B0EA6E23D4C
:1013EE0046DA90AC9ED59001017C0B85A23546D590
:1013FE00A27601017D10B6E2358AA1186943B27A50
:10140E00564306017E0C95622D1DA36A51BB000149
:10141E00861087228E54C5900CCAE00C91220901C9
:10142E00890F87E18D9644D1524AA2A42401018EE0
:10143E000A85A2A556DFF20101920B959A75122B21
:10144E0059A70C01970B84E14C5451A21600019A36
:10145E000B84E14C5451A21600019D15A8194E960D
:10146E00466994A448152927719225199411019F54
:10147E000E87227696D4074D4BEA110001A01289F1
:10148E0022769454B4344FB228AB6470860001A116
:10149E000C67A26DA22C69A59E0101A70E86E28D96
:1014AE0012E5899AE551A20001A80C65A26D524D74
:1014BE00B2244D0001AE14A6DAC594211992211959
:1014CE00922119922119940001AF0D88E245744AB8
:1014DE00E324EA4D0301B00C67A24572492BB51403
:1014EE000201B50D86E2C58664919CD5900101B6C8
:1014FE000A65A2A59628512E01BB0A85A26D529FA0
:10150E00DA0501BC0D85A2E5966968A4A40900015F
:10151E00C007A1DBE41801C212A59E35866228869B
:10152E00C2322C632886420001C3098223E59062F1
:10153E000101CD14B722368AC1187B8666499444C0
:10154E00493A645A0001CE0F96A22D0DC558632854
:10155E00523A250101CF0BB3E2244A43FA0B0001A4
:10156E00D00A93E2244A43FA0201D110B722368AF6
:10157E00C1187B96D4DC927A0401D20D95A22D1D52
:10158E002327894B9A0001D30EB6E2358AA118297A
:10159E00F253A20001D40C95A22D1DA3245EAA0025
:1015AE0001D50EC6E27546A651223F250A0001D688
:1015BE000DA5A26D46A56189972A0001D710D6E226
:1015CE003D8662AC304689FC94280001D80DB5A248
:1015DE003D8D8C6258E2A50A01D910D6E2358AA15A
:1015EE00181DC628919F120501DA0EB5A22D1D23D6
:1015FE00A3189678A90201DB10D6E235866374181B
:10160E00A3447E4A140001DC0FB5A22D06636414B8
:10161E00C3122F550001DD0B65A26D521F923401CE
:10162E0001DE14C72276C68C62CC199A255112257A
:10163E00E990690101DF0FA6A26D4647317A0C458C
:10164E004AA72401E013C72276C68EB16768964476
:10165E004994A443A60501E10FA6A26DC68AB1C6A0
:10166E0050A4744A0201E212A9A27EC679D2901A3F
:10167E00922AB52DCA620101E31088627EC6B44279
:10168E00493A2459D29A0001E410872296146968C7
:10169E0006C58A12C5290001E50B859A4D9AB86ECA
:1016AE00690201E614B722368AC1189B14696806CE
:1016BE00C55A12C5290001E70FB59A2D1D23A5891C
:1016CE004BA2A5090001E812B7E22D0DC6982A25F6
:1016DE003D43B424AA640101E912B6A22D0DC568DA
:1016EE0019922115399392520001EA0FA71A769694
:1016FE00D4DC927A0663580401EB0D859A6D92B88C
:10170E00A43986240001EC11C71A76C69C2535B77C
:10171E00A49EC118160101ED0EA59A6D464D1297A5
:10172E0034C7900401F00CB3D9244A83925E14009E
:10173E0001F414B7221E8AC1189B14696806C55A93
:10174E0012C5290001F50EB59A3D8D94262E899667
:10175E00260001F811B7223646C558725952111596
:10176E00916D0101F90C95A22D066354A4E2250199
:10177E00FA19E7221E8AC118570C463118833334E2
:10178E004BA2244AD221D30201FB13C6A23D86628C
:10179E00CC184A4331348622A5531201FC14B9A247
:1017AE001E8C5131EE9386D49054A96D51160B01B7
:1017BE00FD1298621E8AE11897154AD221C992D657
:1017CE000401FE14B7221E8AC1187B8A34AB888AA4
:1017DE004A49158D0001FF1297A11D8AC1187B8AF7
:1017EE0094A5244A523402020014B7222E0D46311B
:1017FE00E60CCD9228899274C8B40002010F96A20D
:10180E00258AA1347A0C454AA724020214B7225E17
:10181E0086C2186B8666499444493A645A0002039C
:10182E000F96A2550E63E4188A944E490002040DD9
:10183E00B5A2258AA318BEE55B5D02051095A2250B
:10184E008AA3183549872C49130002060CB5A24D00
:10185E004CC3B77CAB0B02070E95A2554CC39374C9
:10186E00C892340102080CB4E1240AA318D45F0014
:10187E0002090C94E1240AA318D41700020A0BB42F
:10188E00E14C0A63507F01020B0B94E14C0A63504A
:10189E005F00020C10B7222E0D4631E62CA9B92599
:1018AE00F508020D0E95A2258AA31835495CD204BF
:1018BE00020E10B7225E86C2186B96D4DC927A04A2
:1018CE00020F0D95A2554CC393C4254D0002100F67
:1018DE00B6E22D0DA55195C8BC44A60002110E947A
:1018EE0022250AA3188A2A51130002120EB6E255B7
:1018FE000E635425322F912902130D94224D0A6343
:10190E0028AA444D0002140EB6E22D0DA551223F19
:10191E00250A0002150D95A2258AA3189678A9020C
:10192E0002160DB6E2550E6394C84F890202170CCB
:10193E0095A2554C83122F5500021814D6CE8D1237
:10194E006B88866852A2D132248331140302191196
:10195E00B58E6D52CD1025CD485986E21000021A73
:10196E0017D6CEC594211992211992211992B164DC
:10197E004806632806021B0ED40D4D9428515B06B3
:10198E00D56108021E0FB6E2358AA11829328F9151
:10199E005300021F0EB5A2258A63A42C53122F01E9
:1019AE00022611A7223EC69EA159122551920E99CA
:1019BE001602270D86A235C61A4391D2290902288E
:1019CE000CA59AE5966F75198B0002290D859A6DF7
:1019DE00920E5992E65804022A11C72276C68C62DC
:1019EE00CC5952734BEA1100022B0EA5A26D46A5DF
:1019FE005193C4254D00022C12D72276C68EE228B2
:101A0E00C69C2535B7A41E01022D0EB5A26D46E566
:101A1E00464E12973401022E0EA7223EC69E253543
:101A2E00B7A41E01022F0C85A235464E1297340123
:101A3E00023010C72276C68EB16749CD2DA9470058
:101A4E0002310EA5A26D46C6C849E29226000232A8
:101A5E0012A8627EC692211A526AD3A00CCBB00C89
:101A6E0002330EA59A6D86252E89944511000250DB
:101A7E000D66A24512252D520C270002540B6462EE
:101A8E00658A4471AA0002580B65A26D926E4A9A3D
:101A9E000002590B65A26D521F923401025F0B8535
:101AAE001955D6494A230002650A859A45E225D181
:101ABE000A02750C65A26D920E89922600027908B3
:101ACE00642255571502870B84214516B5285102FD
:101ADE0002880BA4194D9428516F0102890B65A23F
:101AEE0045A20E895205028C0B65A2351EA34862D3
:101AFE0009028D0E67224E2989922AA2222A1202EB
:101B0E008E0B85A2552D52129700029E0E869A4577
:101B1E009494F448A921191202BB0742F24C2202F6
:101B2E00BC0842F284920002BD0742F2A40C20AC23
:101B3E001088219E16CF48066B4886423505000058
:101B4E00E2287E3511241FBECFEFCDBFDFE3DEBF0F
:101B5E0020E3ACE0B8E201C01D92A537B207E1F771
:101B6E0018E2A0E0B8E2E6E6FBE702C005900D92AF
:101B7E00AC30B107D9F71DE0C8EADDE004C021970B
:101B8E00FE010E94B739C73AD107C9F70E94142C3B
:101B9E000C94DD3B0C940001662329F06A3019F099
:101BAE00862F90E008958FEF9FEF0895CF92DF92EA
:101BBE00EF92FF920F931F93CF93DF93EC01842F3D
:101BCE008770E1E0F0E0082E01C0EE0F0A94EAF70C
:101BDE003E2F7E0199E7E90EF11CD7019C9110E092
:101BEE00923018F41E2F913029F150E0487FE8AD65
:101BFE00F9ADC880D980D60150969C91949F600112
:101C0E00959FD00C11246C0D7D2D711DDF01A60F3B
:101C1E00B71F011115C08C91812B83278D932150F5
:101C2E00D1F7DF91CF911F910F91FF90EF90DF9041
:101C3E00CF90089530E0D9CF110F330F222389F3BF
:101C4E009C91912B93279C938F5F877021508111CC
:101C5E00F3CF9CADA90FB11DF7019081923028F4FE
:101C6E00913009F031E011E0E9CF31E0E7CF80E0CB
:101C7E00089580E0089580FF15C091E19093BB2FE9
:101C8E0069E085FD660F84FF05C08091BB2F880F2C
:101C9E008093BB2F70E080E891E00E9466396093DC
:101CAE00BA2F089598E19093BB2F6CE0EACF81E0B4
:101CBE0080936B3008959B01DC011896ED91FC9199
:101CCE0041E067E10994CF93DF9390E0FC01E65287
:101CDE00F74420812F3F69F0FC01E154F744A081C5
:101CEE0030E2A39FD0011124BC5F613029F411961C
:101CFE002C93DF91CF91089588599744EC01E88198
:101D0E00EF3F81F0CD014096E80FF92FF11D9FB7FF
:101D1E00F89412962C938081623039F48860808317
:101D2E009FBFE7CFF0E0E0E0F2CF877FF8CF8B31B7
:101D3E0008F4C9CF089590E0FC01E35BF744E0811D
:101D4E00EE2319F1E13021F000F1E630A8F008950C
:101D5E0088599744FC012081233008F02F5F309181
:101D6E00010A81E090E001C0880F2A95EAF780957C
:101D7E0083238093010A089580E1E89FF0011124E6
:101D8E00E05AF54F81818F7E818308950F931F93C3
:101D9E00CF93DF93082F10E0F801E652F744D0817D
:101DAE00DF3F99F0C62F8B3108F4C5DFF801E154FF
:101DBE00F744E08180E2E89FF0011124FC5F80810E
:101DCE008D2371F0C11106C0D683DF91CF911F9183
:101DDE000F910895C43011F4D783F7CFD583F5CF83
:101DEE00D801A859B7448C91309771F08F3F61F0AC
:101DFE007096E80FF11D9FB7F8948081C11107C04E
:101E0E00877F80839FBFE1CFF0E0E0E0F4CF886072
:101E1E00F8CF0F931F93CF938B31B0F4082F10E0B0
:101E2E00F801E652F744C081CF3F71F084DFF8012C
:101E3E00E154F744E08180E2E89FF0011124FC5F59
:101E4E008085C82381E009F480E0CF911F910F9126
:101E5E0008958FB7F8942091B7293091B829409101
:101E6E00B9295091BA29E091AA0AF091AB0A909142
:101E7E00A60A90FF08C02F5F3F4F4F4F5F4FE09174
:101E8E00AA0AF091AB0A8FBFA8EEB3E00E94773892
:101E9E0024E0F695E7952A95E1F76E0F7F1F811DD9
:101EAE00911D08958F929F92AF92BF92CF92DF9223
:101EBE00EF92FF924B015C01CCDF6B017C01A8EE2F
:101ECE00B3E0A50194010E947738C60ED71EE81E16
:101EDE00F91EC616D706E806F90610F4BADFF9CFD2
:101EEE00B8DF6C157D058E059F05D0F3FF90EF9042
:101EFE00DF90CF90BF90AF909F908F90089580917C
:101F0E00B5299091B6298130910529F480939329B2
:101F1E009093942908958230910539F481E090E0F0
:101F2E0080939829909399290895059731F481E02B
:101F3E0090E08093AB299093AC290895E0917E298F
:101F4E00F0917F29309709F44DC0A685B785858518
:101F5E00968D91FF04C09C91892329F408959C913C
:101F6E00892309F03FC0A389B4899C918589809506
:101F7E0089238C93868997890197F1F7608D718DEE
:101F8E00A685B785558538E020E0CB010197F1F79E
:101F9E00822F90E095958795282F4C91452309F037
:101FAE002068315091F7868D81FD209580917D2995
:101FBE0090E001968F73992730917C29381799F00C
:101FCE00A0917D29B0E0A252B74D2C9380937D292C
:101FDE00828D938D0197F1F7A389B4898C919589A0
:101FEE00892B8C930895868D8160868FF1CF08950D
:101FFE00DB0114964D915C9115976D917C91DC01EE
:10200E00ED91FC910280F381E02D0994AF92BF9285
:10201E00CF92DF92EF92FF920F931F93CF93DF93A6
:10202E006C017B018B01040F151FEB015E01AE18D5
:10203E00BF08C017D10759F06991D601ED91FC91F7
:10204E000190F081E02DC6010995892B79F7C50124
:10205E00DF91CF911F910F91FF90EF90DF90CF9076
:10206E00BF90AF900895282F30E0F901E859F7445A
:10207E0090819F3F21F121543744F9018081E82F4F
:10208E00EE0FEE0FEE0FE90FEF32C8F4F0E0EE0FA9
:10209E00FF1FE25EF64D6083718322E0443009F447
:1020AE0021E030E2839FF0011124FC5F7096E90F6E
:1020BE00F11D9081987F90838081822B808308957B
:1020CE00EF92FF920F931F93CF93DF9390E2899F2E
:1020DE00E0011124DC5FE984082F000F000F000FD0
:1020EE00FF24F39410E08E2D8F2179F0E02FE10F75
:1020FE00F0E0EE0FFF1FE25EF64D80819181892B9D
:10210E0021F00190F081E02D09951F5FFF0C183032
:10211E0051F7E986DF91CF911F910F91FF90EF90CC
:10212E000895FC01508D418D252F30E0842F90E0D5
:10213E00821B930B541710F0CF96089501970895B4
:10214E00FC0196898789981761F0A789AE0FBF2F7A
:10215E00B11D5D968C9197899F5F9F73978B90E0D1
:10216E0008958FEF9FEF0895FC0196898789981740
:10217E0031F08789E80FF11D858D90E008958FEF7E
:10218E009FEF0895FC0196892789892F90E0805C46
:10219E009F4F821B91098F73992708958BEB99E2BC
:1021AE00F1DF21E0892B09F420E0822F0895CF93EF
:1021BE00DF93EC01E881F9810680F781E02D099526
:1021CE00EC85FD8586818F738683EC85FD85858103
:1021DE008F7585838F898E8B1D8ADF91CF910895A0
:1021EE00AF92BF92CF92DF92EF92FF920F931F9317
:1021FE00CF93DF93EC016A017B01A22E8D89882398
:10220E0039F0E881F9810688F789E02DCE0109952C
:10221E000C8910E0BFB6F89460E070E281EA97E0B6
:10222E00A70196010E94793969017A018FEFC81AC8
:10223E00D80AE80AF80AF694E794D794C794EC857E
:10224E00FD8586818D7F8683EC85FD8586818683DF
:10225E001D8AA09123110A2E000CBB0BA70196011B
:10226E000E94BD3920E034E040E050E00E949B39EE
:10227E00EC85FD85C20ED31EE41EF51EC086D186EA
:10228E00EC85FD85A782EC85FD858681806C868335
:10229E00EC85FD858581806885839091E2058B892B
:1022AE00809589237801EE0CFF1C6701C00ED11EAC
:1022BE00CC0EDD1EF6019089892B8093E20562E03B
:1022CE00868535DDF60187858B3110F461E05EDDA4
:1022DE000E0D1F1DC00FD11F61E08F8528DDBFBE03
:1022EE00DF91CF911F910F91FF90EF90DF90CF90E4
:1022FE00BF90AF900895FC01613019F4648B81E0BA
:10230E000895148A6623D9F380E00895DC0154966B
:10231E001C92549754968C9154978230A0F4282F87
:10232E0030E0F901EE0FFF1FE20FF31FEA0FFB1F64
:10233E009785961303C09685941749F08F5F549630
:10234E008C935497E7CF54961C9280E0089581E0C9
:10235E000895CF93DF93FC01908D818DC485D58533
:10236E00981306C08D818F7D8D83DF91CF91089557
:10237E00A18DAE0FBF2FB11DA35ABF4F2C91818DD2
:10238E0090E001968F739927818F80E48C83A485CA
:10239E00B58512962C93908D818D9813E6CFA485DA
:1023AE00B58515968C9115978F7D15968C93838D8B
:1023BE008823D9F2848D80931301138ED6CFDC013E
:1023CE001C96ED91FC910FB607FE03C0258125FDED
:1023DE0003C0248125FDBDCF0895EF92FF920F9388
:1023EE001F93CF93DF93EC0181E08D8B988D898DB8
:1023FE0098131CC0AC85BD8514968C91149785FFDF
:10240E0015C012966C93AC85BD8580E414968C93A2
:10241E00EC85FD8585818F7D858381E090E0DF9160
:10242E00CF911F910F91FF90EF9008958091110120
:10243E0080FF08C0809113018C8F8A8D80931301C9
:10244E0081E08B8FF62E088D10E00F5F1F4F0F73FC
:10245E001127E02E898D8E1103C0CE01B0DFFACF89
:10246E00E88DEC0FFD2FF11DE35AFF4FF082088F20
:10247E00EC85FD8585818062CFCFCF93DF93FC0104
:10248E0025892223C1F0EC018091110180FF08C043
:10249E0080911301848F828D8093130181E0838F4D
:1024AE00EC85FD85858185FD03C0848186FD03C095
:1024BE00CE0185DFF5CFDF91CF91089580E090E0DA
:1024CE00892B21F06BDE81110E94000080E090E0EC
:1024DE00892B49F080E090E0892B29F00E940000C2
:1024EE0081110E94000080E090E0892B49F080E08D
:1024FE0090E0892B29F00E94000081110C940000BD
:10250E00089581E0089520917E2930917F29281722
:10251E00390771F490917C2980917D29981741F0AB
:10252E00E0917C29F0E0E252F74D808190E0089531
:10253E008FEF9FEF08950895EF92FF920F931F93E1
:10254E00CF93DF93DC015C96ED90FC905D97E114E8
:10255E00F10479F481E090E012968D939C93139799
:10256E0090E080E0DF91CF911F910F91FF90EF905F
:10257E0008955196ED91FC91529750968C915097EB
:10258E00982F90950FB75E962C915E97122F127022
:10259E0021FD6095F8942081112319F1282B2083B9
:1025AE00E7012197F1F728E0462F50E0308160FFD8
:1025BE001AC0382B3083E7012197F1F7BA017595D0
:1025CE006795215089F7112381F0808189238083BB
:1025DE000FBF5C968D919C910197F1F781E090E091
:1025EE00C1CF2923DCCF3923E5CF9081892BEFCFC3
:1025FE0020917E2930917F292817390761F4809127
:10260E007D2920917C2990E0805C9F4F821B91094F
:10261E008F739927089590E080E0089520917E2988
:10262E0030917F2928173907B9F490917C29809130
:10263E007D29981789F0E0917C29F0E0E252F74D60
:10264E00808120917C2930E02F5F3F4F2F733327FD
:10265E0020937C2990E008958FEF9FEF08950F93BC
:10266E001F93CF93DF93EC018989811110C0F1DBA9
:10267E000A891B892C893D89601B710B820B930B78
:10268E0097FDF5CFDF91CF911F910F9108958E8514
:10269E00C0DB8130E1F3F6CFCF92DF92EF92FF9263
:1026AE00CF93DF93FC01218921110CC06A017B01BC
:1026BE00EC01CFDBC60ED71EE81EF91ECA8ADB8AD6
:1026CE00EC8AFD8ADF91CF91FF90EF90DF90CF9053
:1026DE000895FF920F931F93CF93DF93F82E062F3B
:1026EE00142F81EB9FE2BBDFC1EBDFE28C819D817A
:1026FE00DC01ED91FC910190F081E02D6F2D09959B
:10270E008C819D81DC01ED91FC910190F081E02D99
:10271E00602F09958C819D81DC01ED91FC910190DA
:10272E00F081E02D612F099547EB56E060E070E0F7
:10273E00CE01DF91CF911F910F91FF90ADCF4091C0
:10274E00B72F61E28BE1C5CFCF93DF93C1EBDFE211
:10275E008E8180618E83F3DF8E81DF91CF918BCA64
:10276E00CF93DF93C1EBDFE2982F90958E81892373
:10277E008E83E5DF8E81DF91CF917DCA1F93CF933C
:10278E00DF93182F81EB9FE26ADFC1EBDFE28C81D2
:10279E009D81DC01ED91FC910190F081E02D6BE1CA
:1027AE0009958C819D81DC01ED91FC910190F08168
:1027BE00E02D612F09954AE754E060E070E0CE010C
:1027CE00DF91CF911F9168CFEF92FF920F931F93DE
:1027DE00CF93DF93E82EF62E042F122F81EB9FE27C
:1027EE003EDFC1EBDFE28C819D81DC01ED91FC913E
:1027FE000190F081E02D6E2D09958C819D81DC017B
:10280E00ED91FC910190F081E02D6F2D09958C8159
:10281E009D81DC01ED91FC910190F081E02D602F06
:10282E0009958C819D81DC01ED91FC910190F081E7
:10283E00E02D612F099544EF58E060E070E0CE0185
:10284E00DF91CF911F910F91FF90EF9025CF8F9237
:10285E009F92AF92BF92CF92DF92EF92FF921F9311
:10286E00CF93DF93EC01162FFADE8C819D81DC0174
:10287E00ED91FC910190F081E02D612F09951A30B8
:10288E0021F08885998589133BC0AA85EB858A8CB2
:10289E009B8CAC8CBD8C8F818A30F1F4AE0FBB2734
:1028AE00BB1FA50194010E94BD39AB01BC01435C65
:1028BE005D4F6F4F7F4F18861AE0CE01EDDE1F83FE
:1028CE00DF91CF911F91FF90EF90DF90CF90BF904F
:1028DE00AF909F908F9008952E893F89488D598D86
:1028EE00B0E00E9477386B017C01AE2FB0E0A501FD
:1028FE0094010E9477386C0D7D1D8E1D9F1DD5CFC6
:10290E008F5F88874DE352E060E070E0D6CF6D3088
:10291E0009F09DDF81E090E008951F93CF93DF9340
:10292E00EC01162F9CDE8C819D81DC01ED91FC91DA
:10293E000190F081E02D612F09954DE352E060E0AA
:10294E0070E0CE01DF91CF911F91A6CE6CE0E5CF66
:10295E000F931F93CF93DF93FC012081222309F461
:10296E006AC0EC0181859285019709F04CC02FB7A2
:10297E00F8948091B7299091B829A091B929B09176
:10298E00BA292FBF4389548965897689841B950B93
:10299E00A60BB70B41815281638174818417950711
:1029AE00A607B70708F447C02FB7F8948091B72948
:1029BE009091B829A091B929B091BA292FBF838BD4
:1029CE00948BA58BB68B8B859C85AD85BE854D81F5
:1029DE005E816F817885481B590B6A0B7B0B4130EA
:1029EE0051056105710509F418820196A11DB11DED
:1029FE008B879C87AD87BE87E989FA89DF91CF9156
:102A0E001F910F91099425DA0B891C892D893E8916
:102A1E00601B710B820B930B09811A812B813C81F8
:102A2E00601771078207930730F013DA6B8B7C8B7C
:102A3E008D8B9E8BC8CFDF91CF911F910F910895F3
:102A4E00CF93DF93FC0121893289232BF1F0EC0126
:102A5E00818592850197E1F42FB7F8948091B7297B
:102A6E009091B829A091B929B091BA292FBF838B23
:102A7E00948BA58BB68B81E088831B861C861D8666
:102A8E001E8681E090E08F87988BDF91CF9108951D
:102A9E00E0D96B8B7C8B8D8B9E8BEDCFDC011A96E8
:102AAE00ED91FC9130E020E009941F93CF93DF93DA
:102ABE00EC01A881B981683109F499C038F4643108
:102ACE0009F489C0673149F080E00EC0693109F41C
:102ADE00E3C06032C9F76AE487C01C968C9180FD12
:102AEE003FC0411105C081E0DF91CF911F91089544
:102AFE00F90181919F014150DFB7F894A091DC2834
:102B0E00B091DD28C091DB28E091D928F091DA2828
:102B1E007091D8286091D72881110EC08C918C238A
:102B2E008C9388E09081972B90839081962390834D
:102B3E008150C1F7DFBFD5CF1091D62898E05C91B8
:102B4E0087FF0CC0512B5C935081572B5083880FFD
:102B5E00508156235083915091F7ECCF5C23F3CFE5
:102B6E00442309F4C0CFF90181919F014150DFB791
:102B7E00F894A091DC28B091DD28C091DB28E0917B
:102B8E00D928F091DA286091D8287091D728811130
:102B9E000EC08C918C238C9388E090819723908328
:102BAE009081962B90838150C1F7DFBFD9CF1091C2
:102BBE00D62898E05C9187FF0CC0512B5C93508116
:102BCE0057235083880F5081562B5083915091F785
:102BDE00ECCF5C23F3CF11964C9169E45FDFE88173
:102BEE00F9814485417060E4CE0158DF7CCF4C9171
:102BFE0069E454DFA881B981EA85FB8530E020E0E5
:102C0E0012964C916CE2CE010995EE8DEB31F0F5FA
:102C1E00AE2FB0E0A154B7448C918630B8F5F0E2F7
:102C2E008F9FC00111249C5F04968093D9289093A6
:102C3E00DA288FEFEB3120F4F0E0E652F744808192
:102C4E008093D82880958093D728EF8DEB3108F5A7
:102C5E00AE2FB0E0A154B7448C918630D0F420E270
:102C6E00829FC00111249C5F04968093DC28909370
:102C7E00DD288FEFEB3120F4F0E0E652F74480814F
:102C8E008093D62880958093DB282DCF90E080E02E
:102C9E00CBCF90E080E0E8CFEA85FB8530E020E006
:102CAE0013964C916CE20995E881F981418169E4B2
:102CBE009BCFDC011496ED91FC9130E020E040E0DA
:102CCE0060E10994DC011696ED91FC9130E020E074
:102CDE0040E069E10994DC011696ED91FC9130E03B
:102CEE0020E040E068E109949A01DC011696ED912E
:102CFE00FC91462F67E10994EF92FF920F931F9379
:102D0E00CF93DF931F92CDB7DEB77C018B01D80135
:102D1E006C91673121F150F4653198F40F90DF9189
:102D2E00CF911F910F91FF90EF9008956A3108F1A6
:102D3E006E3FA1F7F8014181498369E2C701AEDE1A
:102D4E000BC0F80141814983D7011696ED91FC9194
:102D5E0030E020E0C70109950E5F1F4FD8CFF80174
:102D6E0081818983AE014F5F5F4F61E0C701BCDF98
:102D7E00F3CF0F5F1F4FD7011696ED91FC9130E008
:102D8E0020E040E0C7010995C2CF462FDC01169620
:102D9E00ED91FC9130E020E066E10994462FDC01D4
:102DAE001696ED91FC9130E020E065E10994EF92EA
:102DBE00FF920F931F93CF93DF93EC01042F7901B2
:102DCE006E3009F449C06F3091F06B3009F43BC09E
:102DDE006A3009F45AC06D3009F446C080E069309B
:102DEE0059F587EE97EB8883998382E045C073DFB0
:102DFE00F7011381110F110F110F6C89160F612F2F
:102E0E0062956F706061CE01C9DF612F6F70CE0168
:102E1E00C5DFF7016481606BCE01C0DFF701408131
:102E2E0051816281660F660F660FCE015DDF015024
:102E3E00A9F7CE0147DF81E0DF91CF911F910F916E
:102E4E00FF90EF9008956BED77EB442311F066ED54
:102E5E0077EBCE0151DFEFCF3EDF61E8CE019EDF93
:102E6E00602FCE0192DFE5CF411108C060EE77EB07
:102E7E0043DFE881F98182898C8BDDCF68E278EBC4
:102E8E003BDFE881F9818389F7CFEA85FB8530E066
:102E9E0020E040E068E20995EE81FF8130E020E01D
:102EAE0040E064E1CE01099541E06BE4CE01F6DD30
:102EBE00E881F981448169E2CE01F0DD40E06BE406
:102ECE00CE01ECDDE881F981448169E2CE01E6DDD7
:102EDE0041E06BE4CE01E2DDE881F981458169E2F2
:102EEE00CE01DCDD6FEF77EBB4CFCF93DF931F9284
:102EFE00CDB7DEB76983BE016F5F7F4F0E94620E52
:102F0E000F90DF91CF910895462FDC011896ED9129
:102F1E00FC9130E020E060E20994EF92FF920F9373
:102F2E001F93CF93DF938C01C62FD42F7901673176
:102F3E0030F46531B8F4643131F080E019C0673196
:102F4E00F1F06A31D0F7D8011896ED91FC91970106
:102F5E004D2F6C2FC801DF91CF911F910F91FF90D4
:102F6E00EF90099460E0D0DF6D2FC801BEDF81E0E5
:102F7E00DF91CF911F910F91FF90EF90089561E037
:102F8E00C3DFE1CF0F93DC01DE963C91DE97431B4E
:102F9E00D496ED91FC9109950F910895CF93DF93FF
:102FAE00FC01A081B18182AD982F990F990F990FD5
:102FBE0095AF50969C915097903208F09FE1990FE3
:102FCE00990F990F94AF23AD922F990F990F990FD7
:102FDE0096AF51963C915197682F620F7727771FC6
:102FEE003617170614F4832F821B97AFEF01C05CC0
:102FFE00DF4F880F880F880F890F8883219680EF07
:10300E00888354968D919C915597813F910508F434
:10301E008883EE5BFF4F56968C918083DF91CF9124
:10302E0008950F93FC01EB5BFF4F30813196508179
:10303E00451730F4301738F0041728F080E013C02D
:10304E003017D0F3FBCFFC01ED5BFF4F30818C5B73
:10305E009F4FFC018081681740F481E0321718F011
:10306E0081E0261758F70F9108953217C8F3E6CF6F
:10307E002F923F924F925F926F927F928F929F927A
:10308E00AF92BF92CF92DF92EF92FF920F931F9368
:10309E00CF93DF93EC014C0183E4880E911CF40175
:1030AE001082329720805E01F4E4AF0EB11CF50160
:1030BE0020823FAC6E01F5E4CF0ED11CF6013082BA
:1030CE00359740807E01F6E4EF0EF11CF701408249
:1030DE00349610813297608031967080329750808E
:1030EE00012F262D472D652DCE019BDFCD58DF4FAD
:1030FE00811114C01882DF91CF911F910F91FF9013
:10310E00EF90DF90CF90BF90AF909F908F907F9079
:10311E006F905F904F903F902F90089581E088833D
:10312E00552011F0F4015082621410F4F501608202
:10313E00371410F4F60170821415E8F6F7011083B7
:10314E00DACF0F93DC01802FFD01ED58FF4F9081F8
:10315E009923E9F12223D9F1223020F0023079F5BA
:10316E006F5F621B082F0170FD0180FD32C0EB5BAB
:10317E00FF4F8081481758F131968081481738F5F6
:10318E003297908131978081260F2617F0F46917B8
:10319E00D8F42FEF290F8217D0F4681708F4682F90
:1031AE00291708F4922F961BD696ED91FC91D7977E
:1031BE000480F581E02D292FCD01099508C003303B
:1031CE0089F64F5F421BCECF682F691720F30F9100
:1031DE000895ED5BFF4F80816817C8F331968081AB
:1031EE006817A8F73296908131978081240F2417A3
:1031FE0078F4491760F42FEF290F821740F748171C
:10320E0008F4482F291708F4922F941BCDCF482F7E
:10321E004917E8F6F2CF0F9390913730691798F06F
:10322E0090913830691778F490913530891758F0AD
:10323E0090913630891738F4462F682F00E021E040
:10324E0082EF9FE27EDF0F910895CF92DF92EF9291
:10325E00FF920F931F93CF93DF93C82FD62F68172C
:10326E00F0F4182F161B133830F5D12E8C2FE12CBD
:10327E0012E822E8F22EC0E0012F0695CC24CA9463
:10328E00D81710F4CC24C394FC16F0F4DF91CF9130
:10329E001F910F91FF90EF90DF90CF900895162F12
:1032AE00181B133810F3F62E82E8D82EEE24E39472
:1032BE0080E0D2E8E1CFF82EC62F92E8D92EEE2488
:1032CE00E39482E8D0E0D8CF6D2F8C2FEE2011F052
:1032DE006C2F8D2FA0DF0D1907FF02C0DC0D010F23
:1032EE00CF5FD2CF213039F020F0223031F0840F71
:1032FE000895860F0895841B0895861B0895213026
:10330E0039F020F0223031F0861B0895840F089595
:10331E00860F0895841B08955F926F927F928F920D
:10332E009F92AF92BF92CF92DF92EF92FF920F9346
:10333E001F93CF93DF935C01162F642EEC01C15BBC
:10334E00DF4FDC80ED804C0189E7880E911CFE80FA
:10335E00FD18C12EF11608F4CF2C5B800C85202FA2
:10336E004E2D6D2D8A81BEDF782E202F4E2D6D2D88
:10337E00852DC5DF482F662069F08A85F40180838C
:10338E002C2D672DC501DDDE1F1548F01F19E394A6
:10339E00D12CDDCF89858111F7CF8B85EFCF1D0D18
:1033AE001C83ED82DF91CF911F910F91FF90EF90D3
:1033BE00DF90CF90BF90AF909F908F907F906F9047
:1033CE005F900895DC0118964C911897ED91FC9141
:1033DE001197249130E0042E02C0359527950A945A
:1033EE00E2F7842F860F883068F03196ED93FC93C8
:1033FE001197E49198E0941B01C0EE0F9A95EAF7AD
:10340E002E2B885018968C938FEF9FEF01C0880F4C
:10341E006A95EAF7809582230895FC01E60FF11D67
:10342E00849190E0982F88273196E4918E0F911D0C
:10343E000895CF93DF9320913D3030913E30281781
:10344E00390709F48DC0EC0180933D3090933E30E6
:10345E00FC01849180934E303196E491E0934F308D
:10346E00FE013296E491E0935030FE013396E491E2
:10347E00E0935130FE013496E491E0935230FE0118
:10348E003596E491E0935330FE013696E491E09345
:10349E005430FE013796E491E0935530FE01389694
:1034AE00E491E0935630FE013996E491E093573063
:1034BE00FE013A96E491E0935830FE013B96E4917A
:1034CE00E0935930FE013C96E491E0935A30FE01B0
:1034DE003D96E491E0935B30FE013E96E491E093DD
:1034EE005C30FE013F96E491E0935D30FE017096F4
:1034FE00E491E0935E3061E1CE018FDF80935F3027
:10350E009093603063E1CE0188DF809361309093B9
:10351E00623065E1CE0181DF809363309093643039
:10352E0080913D3090913E30892BD1F080915B306F
:10353E008093673040915C30409368309091663054
:10354E00992371F0913079F490915D30891714F4CC
:10355E009093673080915E30841714F480936830B6
:10356E00DF91CF9108953091583020915A30082E26
:10357E00000C990B622F022E000C770B630F711D3E
:10358E0037FD7A95861797071CF4320F3093673004
:10359E00241734F720936830E3CF6F927F928F9287
:1035AE009F92AF92BF92CF92DF92EF92FF920F93C4
:1035BE001F93CF93DF93EC01062F142F7901FC019B
:1035CE00E55AFF4F8081813009F445C0D0F1823039
:1035DE0009F44BC0833009F452C0FE01EF5AFF4F7D
:1035EE0000833196108337978081918147962FEF14
:1035FE00E216F10411F008F0DFC0E1E6EE16F10478
:10360E0008F447C0FE01E159FF4F20813181820F3E
:10361E00931F9C012F5F3F4FF9014491411142C00E
:10362E00712C872DDF91CF911F910F91FF90EF900D
:10363E00DF90CF90BF90AF909F908F907F906F90C4
:10364E000895FE01E35BFF4F0190F081E02DCE0166
:10365E000995180FC2CFFE01E35BFF4F0190F08179
:10366E00E02DCE010995081BB8CFFE01E35BFF4F9D
:10367E000190F081E02DCE010995181BAECFFE0111
:10368E00E35BFF4F0190F081E02DCE010995080F0D
:10369E00A4CFF1E4EF16F10408F4BBCFFE01E35919
:1036AE00FF4FB3CFFC0144914E151F0409F07FC0AC
:1036BE000296009709F4B4CF7E01FFE4EF0EF11CE1
:1036CE00F70180839183108671966081C7017ADE3F
:1036DE00F701868372966081C70174DEA82EF7010A
:1036EE0087836E01F9E7CF0ED11CF6019081F701A9
:1036FE00928781E0911180E0F7018387FE01EE59F8
:10370E00FF4FB0806B2DC7015DDE882EFE01ED5997
:10371E00FF4F1081612FC70155DE982EFE01EC5927
:10372E00FF4F0081602FC7014DDE015041E050E098
:10373E009A0101C0220F0A95EAF7782E721AF70144
:10374E00068110160CF06DCFBA94CA0101C0880F15
:10375E00BA94EAF7881AB4849A0C115001C0440F37
:10376E001A95EAF7F42FF9199F2E2B2D4F2F682D4E
:10377E00F7018281B7DD182FF70182832B2D492D9A
:10378E00682D8381BCDDF7018383F1E0BF1609F458
:10379E0074C0BF1608F43DC022E0B21609F473C01F
:1037AE0093E0B91609F47AC0082F212F36C0F9011B
:1037BE002491820F911D2DCFFE01EF58FF4F0081F6
:1037CE001181080F191F680160E0C60126DE080F7F
:1037DE00191F62E0C60121DEF4E0CF0ED11C8E155A
:1037EE009F0590F3F801849190E0982F88273196E9
:1037FE00E4918E2B009709F413CFE816F90619F40D
:10380E00C801039656CFF8013296E4910E0F111DA2
:10381E00E9CF202F210F082F0A0D482F612FCE013F
:10382E0000DC882309F4FDCEF701148215828E0187
:10383E00025A1F4F4E01FFE58F0E911CF801608159
:10384E00C701C0DD682EF4016081C701BBDDB82E53
:10385E0040E0662DCE0160DD41E06B2DCE015CDDDA
:10386E0061E0C701AFDD8111F3CFF70185818A15C4
:10387E002CF38285F6018083D4CEBA1821E0210F75
:10388E00080F1B0DCACF91E0392F301B21E0210FFD
:10389E009A1901E0080F890F130FBFCF212F2A0DA0
:1038AE00982F901B01E0080F81E0890FB6CFFF9291
:1038BE000F931F93CF93DF93C82FD62F10920A30FA
:1038CE008A01F12CF80161918F01E091F42FF091B2
:1038DE00F52F82EF9FE209958F3F9807E9F08E3F13
:1038EE002FEF920779F39C014D2F6C2F82EF9FE201
:1038FE0054DE90914D30913049F030F0923041F0DD
:10390E00933041F0F80EDECFC80FFCCFD80FFACFB0
:10391E00C81BF8CFD81BF6CF8F2DDF91CF911F91FB
:10392E000F91FF90089523ED3DE02093F42F3093F7
:10393E00F52FBDCFCF93DF93EC016BAFEEA9FFA9AF
:10394E000190F081E02D0995EEA9FFA90280F38187
:10395E00E02DCE01DF91CF910994AF92BF92CF921D
:10396E00DF92EF92FF920F931F93CF93DF93CDB71A
:10397E00DEB72597CDBFDEBF8C01DC01DA96AC90A9
:10398E00DA97DB96EC90DB97ED91FC91B188FE2CEB
:10399E00D12CC12CD801ED91FC9111978089D8962C
:1039AE002D913C911C82FD828B83B8E08B9FC001D0
:1039BE0011248C9DA0018D9D500D9C9D500D1124A8
:1039CE00240F351F29833A83D8011496ED91FC916B
:1039DE009E012F5F3F4F41E06FE0C8010995F394C0
:1039EE008F2D8E198A1528F4BFEFCB1ADB0AFB1424
:1039FE0088F22596CDBFDEBFDF91CF911F910F913B
:103A0E00FF90EF90DF90CF90BF90AF90089582EF30
:103A1E009FE2A3DF82EF9FE24CC90F931F93CF93D8
:103A2E00DF938C01C62F642FCC32B8F4CA32F0F576
:103A3E00C83259F1C93209F43FC080E0C034B8F140
:103A4E00CF73F801EC0FF11D868D8F3F79F1C031E8
:103A5E0008F04AC08B31B0F029C0CD3299F168F32D
:103A6E0084EB8C0F823048F7CF73C00FD12FD11D4E
:103A7E008E8D411135C061E00E949E0E8E8D60E0EC
:103A8E008B31A0F40E94CD0E11C0025E1F4FD0E00C
:103A9E00F80181918F018F3F31F061E0D03108F054
:103AAE0062E00E949E0EDF5FD63191F781E0DF91DA
:103ABE00CF911F910F91089570E090E080E00E94E9
:103ACE00590FF4CF85E090E0433010F082E090E0A3
:103ADE00880F991F880F991F05970197F1F7E6CF69
:103AEE0062E00E949E0EE2CF0E94100F91E08111C3
:103AFE0001C090E0F801918FD9CF0F9391E0909390
:103B0E008129109280296093D4287093D5284093F0
:103B1E00D3282093D22810928229109283290093C1
:103B2E00D128880F8093D02893E024E08091D32869
:103B3E00882331F0909384298091D0288E7F09C0FC
:103B4E008091D228882341F0209384298091D02817
:103B5E0081608093A70808C08091D328811104C08A
:103B6E008091D228882331F3809180298823E1F334
:103B7E00809180298330D1F28091D228882321F040
:103B8E00809183290F9108959091802981E0913041
:103B9E00C9F780E0F7CFE0EAF8E09185906691876B
:103BAE0092E0909384298093C8281092C728089594
:103BBE0081E08093C7281092C82893E09093AA08BA
:103BCE009091AB0891FF0BC01092CE28F0E0E0E090
:103BDE0009958093CD2885E08093842908951092CD
:103BEE00CF288093CC2886E0F7CFE091882980916A
:103BFE008729E81730F4F0E0E957F74D808190E01F
:103C0E0008958FEF9FEF08959091882980918729CD
:103C1E002FEF3FEF981748F4E92FF0E0E957F74DF3
:103C2E00208130E09F5F90938829C901089580918B
:103C3E00872990918829891B990B0895CF92DF923D
:103C4E00EF92FF920F931F93CF93DF937C018A0124
:103C5E00EB016B01C40ED51ECC15DD0551F069913B
:103C6E00D701ED91FC910190F081E02DC7010995EE
:103C7E00F3CFC801DF91CF911F910F91FF90EF907D
:103C8E00DF90CF90089520918529203440F021E0D7
:103C9E0030E0FC012283338390E080E00895809130
:103CAE008629E82FF0E0E95BF74D60838F5F809304
:103CBE0086298093852981E090E00895809145289A
:103CCE009091462880934328909344288091B5295B
:103CDE009091B6290097A9F480914128909142289D
:103CEE00892B09F485C08091B1299091B22904974E
:103CFE0008F478C084E090E08093B1299093B229C3
:103D0E0008958130910589F480914128909142283F
:103D1E00892B09F46DC08091B1299091B229039736
:103D2E0008F460C083E090E0E7CF82309105B1F5F2
:103D3E0080919A298111E4CF80919B2990919C29A1
:103D4E00A0919D29B0919E29209141283091422821
:103D5E00232BB1F082339105A105B1056CF082E3FE
:103D6E0090E0A0E0B0E080939B2990939C29A093D3
:103D7E009D29B0939E2908950196A11DB11DF3CFE3
:103D8E008B309105A105B1052CF48AE090E0A0E0FE
:103D9E00B0E0E9CF0197A109B109E5CF83309105D4
:103DAE0079F48091412890914228892B09F18091D4
:103DBE00B1299091B2290997A8F089E090E09CCFA3
:103DCE00049709F09DCF8091412890914228892B2C
:103DDE0079F08091B1299091B229892B19F081E067
:103DEE0090E08ACF8091B1299091B229019684CF2B
:103DFE008091B1299091B229892B29F41092B12981
:103E0E001092B22908958091B1299091B22901970B
:103E1E0073CF61E087E10E94CD0E1092B12910920E
:103E2E00B22981E090E08093AE299093AF29089556
:103E3E0060E083E10E94CD0EE2EAFEE2108213867C
:103E4E001486158616861786108A0895EDEBFEE207
:103E5E00108213861486158616861786108A61E0E0
:103E6E0087E10C94CD0E8DEB9EE20E94271560E04B
:103E7E0087E10C94CD0E8330910581F460E086E1EC
:103E8E000E94CD0E60E08FE00E94CD0E61E080E1D9
:103E9E000E94CD0E60E081E10C94CD0E8230910532
:103EAE0071F460E086E10E94CD0E60E08FE00E942A
:103EBE00CD0E60E080E10E94CD0E61E0ECCF019767
:103ECE0051F460E086E10E94CD0E60E08FE00E942A
:103EDE00CD0E61E0EFCF089561E082E10E94CD0E3C
:103EEE008BE490E00197F1F760E082E10E94CD0E45
:103EFE008091A7299091A829A091A929B091AA29CA
:103F0E000196A11DB11D8093A7299093A829A09376
:103F1E00A929B093AA2908958091B1299091B22927
:103F2E00892B99F080910128909102288431910576
:103F3E006CF0E091B129F091B229EE52F8448081F3
:103F4E0090E0809301289093022808950796F9CF68
:103F5E008091B5299091B629019709F04AC08091B8
:103F6E00952990919629892B41F18091B1299091B3
:103F7E00B229892BE1F461E083E10E94CD0E80919C
:103F8E00AB2E9091AC2E892B09F06CC080E89AE193
:103F9E00A6E0B0E08093A32E9093A42EA093A52E1E
:103FAE00B093A62E82EA9EE20E9427150AC0809147
:103FBE00B1299091B229892BF1F61092B529109260
:103FCE00B629109295291092962910928D29109249
:103FDE008E2910928F291092902910928929109271
:103FEE008A2910928B2910928C291092B129109245
:103FFE00B2298091B5299091B629019721F010929E
:10400E00B5291092B6291092A7291092A8291092BC
:10401E00A9291092AA291092B1291092B2291092B0
:10402E00B02981E0809300281092D82E1092E32EB2
:10403E001092E42E1092E52E1092E62E1092E72E9C
:10404E001092E82E1092B3291092B429FFDE10922E
:10405E00A5291092A62981E090E0809303289093E1
:10406E000428089580E991E0A0E0B0E093CF80911C
:10407E00B5299091B629009771F58091B12990914B
:10408E00B22901968093B5299093B6291092B12941
:10409E001092B2291092B02961E083E10E94CD0EF8
:1040AE008091AB2E9091AC2E892B81F480E593EC10
:1040BE00A0E0B0E08093A32E9093A42EA093A52E03
:1040CE00B093A62E82EA9EE20C94271582E390E02E
:1040DE00A0E0B0E0EFCF8130910509F462C08230EC
:1040EE00910521F481E080939A29089583309105FA
:1040FE0069F580919F299091A02981309105F9F45D
:10410E002091B1293091B2292091B1293091B22953
:10411E002A303105A0F42091B1293091B229209393
:10412E0091293093922910929F291092A0291092D2
:10413E00B1291092B2298093B5299093B62981E0C6
:10414E0090E080930328909304280895853091057C
:10415E0031F48091AD298F5F8093AD290895049736
:10416E0001F58091A1299091A22981309105C9F480
:10417E002091B1293091B2292130310541F460E00E
:10418E0083E10E94CD0E8CE69EE20C94AF1420913A
:10419E00B1293091B229232B21F48093A529909334
:1041AE00A6290895F89488E00E94100F813049F5F1
:1041BE0089E00E94100F813021F5809133288823E9
:1041CE0001F18091452890914628019680934528CB
:1041DE0090934628109233281092322881E090E076
:1041EE0080934128909342287894209143283091CF
:1041FE00442880914528909146282817390749F080
:10420E005DCD89E00E94100F813071F780933228C6
:10421E00EBCF0895F89488E00E94100F813009F0DA
:10422E0041C089E00E94100F8130E1F58091322863
:10423E008823C1F18091452890914628019780935B
:10424E0045289093462810923328109232281092C7
:10425E00412810924228789461E083E10E94CD0EAD
:10426E008091AB2E9091AC2E892B21F580E593ECAD
:10427E00A0E0B0E08093A32E9093A42EA093A52E41
:10428E00B093A62E82EA9EE20E9427152091432823
:10429E003091442880914528909146282817390757
:1042AE0071F00CCD88E00E94100F8130A1F6809342
:1042BE003328D1CF82E390E0A0E0B0E0DBCF0895C9
:1042CE00CF92DF92EF92FF920F931F93CF93DF93D4
:1042DE006C01EB017B01E40EF51E10E000E0CE1543
:1042EE00DF0561F06991D601ED91FC910190F081AD
:1042FE00E02DC6010995080F191FF1CFC801DF91F6
:10430E00CF911F910F91FF90EF90DF90CF90089576
:10431E00CF92DF92EF92FF920F931F93CF93DF9383
:10432E00EC016C0124E0C20ED11CFC01E158FF4FE0
:10433E000190F081E02DC60109958E3FEFEF9E07AB
:10434E00C0F48E010E571F4F7E01F1E8EF0EF11CE7
:10435E009C01F8014081F7016081C6011ED9C15A46
:10436E00DF4F98819130A9F078F09230A1F0933020
:10437E00B9F081E090E0DF91CF911F910F91FF9006
:10438E00EF90DF90CF900895F7019081890F808391
:10439E00F0CFF801FACFF7019081981B892FF7CF54
:1043AE00F801FACFDC01ED91FC910488F589E02D3E
:1043BE0023E030E0099490E080E00895082E000C90
:1043CE00990B0E949E3B8C34910569F08D349105BA
:1043DE0031F080E20E94B71380E10C94B7130E9473
:1043EE00AB1380E2FACF0E94AB138091B72F80629D
:1043FE008093B72F0E94A6138091B72F0C94420E74
:10440E00FB0101900020E9F73197AF01461B570BD6
:10441E00DC01ED91FC910280F381E02D0994CF93A4
:10442E00DF93BC0181EB9FE2EBDFEC0169E179EBFD
:10443E0081EB9FE2E5DF8C0F9D1FDF91CF910895F9
:10444E004F925F926F927F928F929F92AF92BF9296
:10445E00CF92DF92EF92FF920F931F93CF93DF9342
:10446E00CDB7DEB7A197CDBFDEBF8C016B01770F45
:10447E00EE08FF08F7FE45C0DC01ED91FC910190BE
:10448E00F081E02D6DE209955C0122273327A90109
:10449E002C193D094E095F0919A2FE01B1967F0143
:1044AE009AE0492E512C612C712CCA01B901A3013D
:1044BE0092010E947939605DD7016E937D012115BD
:1044CE0031054105510589F790E080E0109719F00C
:1044DE00BD01C80195DF8A0D9B1DA196CDBFDEBF24
:1044EE00DF91CF911F910F91FF90EF90DF90CF90C2
:1044FE00BF90AF909F908F907F906F905F904F90F6
:10450E000895A701960119A2FE01B1967F018AE0D6
:10451E00882E912CA12CB12CCA01B901A5019401B0
:10452E000E947939605DD7016E937D0121153105A9
:10453E004105510589F790E080E0109771F2BD01B9
:10454E00C8015EDFCACFCF9382E090E08093A529A9
:10455E009093A6298CE091E08093C02F9093C12F69
:10456E0040E251EA67E070E081EB9FE20E94531354
:10457E0040E050E0BA0181EB9FE20E9453136FEFCF
:10458E0081EB9FE20E9494148091C02F9091C12FD5
:10459E00CAE08830914008F436C162E370E080E0F2
:1045AE0090E00E94590F20E040E068E38BE10E940A
:1045BE00EB1380E40E94C5138AE08093B82F10920B
:1045CE00B92F80E28093BA2F88E18093BB2F86E0CB
:1045DE008093BC2F82E38093BD2F8091C02F90914A
:1045EE00C12F8830914078F084E40E94C51320E1F9
:1045FE004CE068E084E00E94EB1320E04CE168E1BF
:10460E0084E10E94EB1387E30E94C51348E268E73A
:10461E008BE00E9470138091BF2F8F3F59F062E0A4
:10462E000E949E0E40E261E68DE10E94701381E0D1
:10463E008093C22F80E395E7A0E0B0E08093C72F70
:10464E009093C82FA093C92FB093CA2F84E398E0FC
:10465E00A0E0B0E08093CB2F9093CC2FA093CD2FE2
:10466E00B093CE2F8FEF8093BE2F83E490E00E9405
:10467E009E3B41E08334910529F042E0823591055D
:10468E0009F040E061E68BE10E9470138DE496DE46
:10469E008CE199EBC4DE8CE490E00E949E3B41E0FD
:1046AE008334910529F042E08235910509F040E00E
:1046BE0061E68BE10E94701383E580DE81E399EB66
:1046CE00AEDE6BE479EB81EB9FE29ADE809191296D
:1046DE009091922926E0289FB001299F700D1124F8
:1046EE006D50714D81EB9FE20E94FF0F69E179EBF6
:1046FE0081EB9FE285DE67E579EB81EB9FE280DE61
:10470E0060913F287091402881EB9FE299DE66E62A
:10471E0079EB81EB9FE274DE60913D2870913E282B
:10472E0081EB9FE28DDE66E679EB81EB9FE268DE40
:10473E0060913B2870913C2881EB9FE281DE68E618
:10474E0079EB81EB9FE25CDE6091392870913A281B
:10475E0081EB9FE275DE65E579EB81EB9FE250DE42
:10476E00609137287091382881EB9FE269DE65E50C
:10477E0079EB81EB9FE244DE60913528709136280B
:10478E0081EB9FE25DDE69E179EB81EB9FE238DE42
:10479E006BE679EB81EB9FE233DE83E899EB3FDE4C
:1047AE0089E699EB3CDE87E899EB39DE89E699EBF1
:1047BE0036DE6AE081EB9FE20E942E146AE081EB06
:1047CE009FE20E942E146AE081EB9FE20E942E145B
:1047DE0061E083E10E94CD0E8091AB2E9091AC2EC4
:1047EE00892B09F580E69EEAAAE0B0E08093A32E1D
:1047FE009093A42EA093A52EB093A62E82EA9EE2AD
:10480E00CF910C94271560E081EB9FE20E949414E7
:10481E0040E157E260E070E081EB9FE20E945313AB
:10482E00C15089F7C6CE8CEB92E0A0E0B0E0DECFAF
:10483E000F931F93CF93DF93EC018881998100979B
:10484E0059F02A813B812617370730F081E0DF913E
:10485E00CF911F910F9108958B016F5F7F4F0E9433
:10486E00E83A009759F0888399830A831B832C8139
:10487E003D81232B59F7FC011082E8CF80E0E7CF72
:10488E00EF92FF920F931F93CF93DF93EC017B0177
:10489E00188219821A821B821C821D82FB010190D2
:1048AE000020E9F731978F01061B170BB801C0DF07
:1048BE0028813981811113C02115310519F0C901E3
:1048CE000E945F3A188219821C821D821A821B82F4
:1048DE00DF91CF911F910F91FF90EF9008950C8370
:1048EE001D83B701C901DF91CF911F910F91FF90E9
:1048FE00EF900C94B63BEF92FF920F931F93CF93D2
:10490E00DF93EC017B01FB0101900020E9F7319769
:10491E008F01061B170BB8018BDF2881398181119E
:10492E0013C02115310519F0C9010E945F3A188292
:10493E0019821C821D821A821B82DF91CF911F91D8
:10494E000F91FF90EF9008950C831D83B701C9015D
:10495E00DF91CF911F910F91FF90EF900C94B63B8A
:10496E00BF92CF92DF92EF92FF920F931F93CF934E
:10497E00DF93CDB7DEB72697CDBFDEBF88E6809337
:10498E003428109286291092852960E088E59AE2F3
:10499E007AD980918429813061F4809181298111A5
:1049AE0008C001E020E04091852967E478E288E6BE
:1049BE00A4D8109286291092852987E898E28093D0
:1049CE00C9289093CA2880918429813009F091C01A
:1049DE008091812981118FC001E027E040E070E0D5
:1049EE0060E088E68AD8109288298093872988E526
:1049FE009AE20AD9982F929597702AE0D22E8F704C
:104A0E00C82E9D9DC00C112488E59AE2FDD8982FE2
:104A1E0092959F708F70B82E9D9DB00C112488E5D5
:104A2E009AE2F2D8982F92959370082F0F709D9D51
:104A3E00000D112488E59AE2E7D8982F92959F7081
:104A4E008F70182F9D9D100D112488E59AE2DCD8E9
:104A5E00982F92959F708F70E82E9D9DE00C1124DB
:104A6E0088E59AE2D1D8982F92959F708F70F82E84
:104A7E009D9DF00C112488E59AE2C6D82C2D30E0CD
:104A8E0020933528309336282B2D30E0209337286D
:104A9E00309338282E2D30E020933F283093402835
:104AAE002F2D30E020933D2830933E28982F92955D
:104ABE009F708F709D9D800D112490E080933B28F8
:104ACE0090933C286BE179EBCE010196D9DE115023
:104ADE006DEC79EB173098F4E12FF0E0E758FA4DD2
:104AEE000C94B7398425BC25BF25C225C525C825FC
:104AFE00CB2580E078CF81E076CF64E979EBCE01EB
:104B0E000196F9DE8091662E9091672E009709F43A
:104B1E0040C069817A8161157105C9F14091682E95
:104B2E005091692E2D813E814217530780F10E94CC
:104B3E00B63B8D819E8180936A2E90936B2E8981D8
:104B4E009A810E945F3A10E00093392810933A2818
:104B5E002696CDBFDEBFDF91CF911F910F91FF90B3
:104B6E00EF90DF90CF90BF9008956BE979EBC7CFB0
:104B7E0063EA79EBC4CF6DEA79EBC1CF66EB79EBE3
:104B8E00BECF6DEB79EBBBCF66EC79EBB8CF0E9465
:104B9E005F3A89819A818093662E9093672E8B81DE
:104BAE009C818093682E9093692E8D819E81809337
:104BBE006A2E90936B2E19821A82C1CFFC01A081AE
:104BCE00B18150962C9182AD38E0839FC0011124A3
:104BDE00289FA001299F500D112470E060E080AD48
:104BEE0091AD0C94AF3BEF92FF921F93CF93DF9357
:104BFE00EC017C018AE7E80EF11CF7018081882325
:104C0E0011F0CE01DBDF60E0CE010E94A11CCE01CF
:104C1E000E94B41C1BAD8AAD180FE881F981818901
:104C2E00181760F0CE010E94601660E0CE01DF9191
:104C3E00CF911F91FF90EF900C94A11CF7018081F2
:104C4E00882311F0CE01BADF612FDECF1F920F92B3
:104C5E000FB60F9211248F939F93AF93BF938091B2
:104C6E00B7299091B829A091B929B091BA29019686
:104C7E00A11DB11D8093B7299093B829A093B9298E
:104C8E00B093BA2981E08093A60ABF91AF919F910C
:104C9E008F910F900FBE0F901F9018951F920F922D
:104CAE000FB60F9211242F933F934F935F936F93F1
:104CBE007F938F939F93AF93BF93EF93FF9385E073
:104CCE000E946710FF91EF91BF91AF919F918F91CD
:104CDE007F916F915F914F913F912F910F900FBEEA
:104CEE000F901F9018951F920F920FB60F921124CE
:104CFE002F933F934F935F936F937F938F939F93D6
:104D0E00AF93BF93EF93FF9384E00E946710FF91E0
:104D1E00EF91BF91AF919F918F917F916F915F9125
:104D2E004F913F912F910F900FBE0F901F9018959E
:104D3E001F920F920FB60F9211242F933F934F9302
:104D4E005F936F937F938F939F93AF93BF93EF93E5
:104D5E00FF9383E00E946710FF91EF91BF91AF9197
:104D6E009F918F917F916F915F914F913F912F9175
:104D7E000F900FBE0F901F9018951F920F920FB6A7
:104D8E000F9211242F933F934F935F936F937F93C3
:104D9E008F939F93AF93BF93EF93FF9382E00E9405
:104DAE006710FF91EF91BF91AF919F918F917F917E
:104DBE006F915F914F913F912F910F900FBE0F907A
:104DCE001F9018951F920F920FB60F9211242F93CA
:104DDE003F934F935F936F937F938F939F93AF9375
:104DEE00BF93EF93FF9381E00E946710FF91EF91C5
:104DFE00BF91AF919F918F917F916F915F914F91E5
:104E0E003F912F910F900FBE0F901F9018951F92EC
:104E1E000F920FB60F9211242F933F934F935F93E0
:104E2E006F937F938F939F93AF93BF93EF93FF9364
:104E3E0080E00E946710FF91EF91BF91AF919F911B
:104E4E008F917F916F915F914F913F912F910F9025
:104E5E000FBE0F901F9018951F920F920FB60F92C4
:104E6E0011242F933F934F935F936F937F938F9361
:104E7E009F93AF93BF93EF93FF938BEB99E20E94B7
:104E8E00B011FF91EF91BF91AF919F918F917F9153
:104E9E006F915F914F913F912F910F900FBE0F9099
:104EAE001F9018951F920F920FB60F9211242F93E9
:104EBE008F939F93EF93FF93E091C729F091C829A9
:104ECE00818181FD1BC090818091D1298F5F8F736D
:104EDE002091D229821741F0E091D129F0E0E554DA
:104EEE00F64D958F8093D129FF91EF919F918F91E0
:104EFE002F910F900FBE0F901F9018958081F4CFB9
:104F0E001F920F920FB60F9211242F933F934F9330
:104F1E005F936F937F938F939F93AF93BF93CF9333
:104F2E00EF93FF93C091AB08C2FF0AC01092CF2837
:104F3E001092CE281092CD2884E00E94D21D12C06D
:104F4E00C6FF2DC08091CC28813041F48091CF28AE
:104F5E0090E0F0E0E0E009951092CC28C0FF14C07C
:104F6E000E94DF1DFF91EF91CF91BF91AF919F9165
:104F7E008F917F916F915F914F913F912F910F90F4
:104F8E000FBE0F901F90189580E48093AB0881E0C0
:104F9E000E94D21D8091AB0885FFE4CFE1CFC7FF01
:104FAE0050C0C3FF08C01092CF281092CE28109286
:104FBE00CD2883E0C2CF8091A90880668093A9088E
:104FCE008091AB0881FF26C08091CE28882349F0BE
:104FDE008091AB0884FF05C082E08093AA0881E02F
:104FEE00ACCF9091CE288091CD28981778F4E0918F
:104FFE00CE28F0E080818093AD088091CE288F5F1F
:10500E008093CE2883E08093AA08ACCF82E0809371
:10501E00AA0893CF9091CF288091CB28981760F44F
:10502E008091AD08E091CF28F0E080838091CF2869
:10503E008F5F8093CF28E6CF86E08093AA0882E028
:10504E007CCF85E07ACF1F920F920FB60F9211246C
:10505E002F933F938F939F93EF93FF938091A50888
:10506E00982F9C70C9F08091A50894E082FF93E080
:10507E00909380298093A50881E0809384291092D3
:10508E008129FF91EF919F918F913F912F910F90D9
:10509E000FBE0F901F90189586FF4CC02091D328FD
:1050AE009091D2288091A50884FF10C08091D128BC
:1050BE00882351F083E08093A40885E080938029B3
:1050CE001092812981E031C081E0F5CF8091822953
:1050DE00821790F4E09182298091D4289091D5285E
:1050EE00E80FF92FF11D80818093A8088091822905
:1050FE008F5F80938229C5CF80918329891748F4C9
:10510E0084E0809384298091D02881608093A708C1
:10511E00B8CF8091D128882359F083E08093A408DA
:10512E0081E0809380291092812980938429A9CFD0
:10513E0081E0F4CF87FF3DC0909183298091D228E2
:10514E009817D8F48091A808E09183292091C92856
:10515E003091CA28E20FF32FF11D808380918329AD
:10516E008F5F809383299091D2288091832989170C
:10517E00C0F482E08093A40884CF8091D128882344
:10518E0071F087E08093A40882E0809380291092CA
:10519E00812981E0809384291092D22872CF85E0F4
:1051AE00F1CF8091D128882311F087E0B7CF85E029
:1051BE00B5CF86E083CFCF93DF931092BD291092A7
:1051CE00BE2948EE53E060E070E04093BF29509353
:1051DE00C0296093C1297093C22987E898EB809308
:1051EE00BB299093BC2980E098E08093C7299093C7
:1051FE00C82991E09093C9291092CA291092CB29FF
:10520E0085E08093CC2984E08093CD299093CE299C
:10521E001092CF291092D0291092D1291092D22912
:10522E001092D3291092D42992E19093D5291092FD
:10523E00D6291092D72910925A2A10925B2A40939F
:10524E005C2A50935D2A60935E2A70935F2A25EA4A
:10525E0038EB2093582A3093592A8093652A81E29D
:10526E008093642A1092F02F1092F12F83ED9DE01F
:10527E0080936D3090936E3010926F30109270302C
:10528E0010920A308BE099EB8093EE2F9093EF2FD4
:10529E001092F22F1092F32F109207301092FE2FD1
:1052AE001092FF2F10920030109201308FEF8093EA
:1052BE00083080930C30E0E1F0E3DFEFD19380E330
:1052CE00E632F807D9F78EED96E18093F62F90939C
:1052DE00F72F84E997E18093F82F9093F92F8CE5BF
:1052EE0095E18093FA2F9093FB2F84E19DE18093BB
:1052FE00FC2F9093FD2F30E020E040E069E082EF3C
:10530E009FE20E94DE1610923D3010923E308DEDDF
:10531E009DE0809326309093273086E69AE2809324
:10532E002A3090932B3088E080932C3010922D30C1
:10533E0010924A3010926A30C1E0C0936B30C09325
:10534E006C3083E199EB809328309093293082EF73
:10535E009FE20E94D5171092393010923B30D093B5
:10536E003A30D0933C30E0912830F09129300280D1
:10537E00F381E02D82EF9FE2099580E49EE0809319
:10538E003F309093403010924D3086E08093103035
:10539E0084E08093113087E08093193085E080930C
:1053AE001A308DE080931B301092D12F1092D22F95
:1053BE0088EE93E0A0E0B0E08093D32F9093D42FAB
:1053CE00A093D52FB093D62F89EF98EB8093CF2F44
:1053DE009093D02F1092E52F1092E62F1092E72F78
:1053EE001092E82F1092E92F1092EA2F1092EB2FC5
:1053FE001092EC2F8091ED2F8E7F8D7F8093ED2F6D
:10540E0081FB662760F96C2789E10E94CD0E61E071
:10541E0089E10E946A0E80E28093DF2F84EA94E095
:10542E008093E02F9093E12F60E088E10E946A0E56
:10543E008091ED2F81FD04C061E088E10E94CD0EC8
:10544E0088E18093DB2F80E18093DC2F88EA94E063
:10545E008093DD2F9093DE2F1092B32F1092B42FE6
:10546E0087EB98EB8093B12F9093B22F8FEC9FE246
:10547E008093B52F9093B62F8FEF8093BF2F1092FE
:10548E00C22F82E390E08093792F90937A2F80E958
:10549E0091E080937B2F90937C2F80E293E080931A
:1054AE007D2F90937E2F1092812F1092822F10922B
:1054BE00832F1092842F1092852F1092862F109288
:1054CE00872F1092882F1092892F10928A2F109268
:1054DE008B2F10928C2F10928D2F10928E2F109248
:1054EE008F2F1092902F1092912F1092922F109228
:1054FE00932F1092942F1092952F1092962F109208
:10550E00972F1092982F1092992F10929A2F1092E7
:10551E009B2F10929C2F10929F2F1092A02F1092C3
:10552E00A12F1092A22F1092A32F1092A42F10929F
:10553E00A52F1092A62F1092A72F1092A82FC1E080
:10554E00D0E0C093AF2FD093B02F8AE090E080933D
:10555E00772F9093782F10927F2F1092802F62E0EA
:10556E000E949E0E65ED79EB87E49FE289D962EE8B
:10557E0079EB8DE49FE284D960EF79EB83E59FE2CE
:10558E007FD961E07AEB89E59FE27AD96EE07AEB1A
:10559E008FE59FE275D968E679EB85E69FE270D9D3
:1055AE0069E679EB8BE69FE26BD969E679EB81E7E9
:1055BE009FE266D96BE17AEB83EF9EE261D963E2FB
:1055CE007AEB89EF9EE25CD96DE27AEB8FEF9EE289
:1055DE0057D965E37AEB85E09FE252D96EE37AEB19
:1055EE008BE09FE24DD969E47AEB81E19FE248D9E5
:1055FE0065E57AEB87E19FE243D96EE57AEB8DE1C3
:10560E009FE23ED968E67AEB83E29FE239D964E7FE
:10561E007AEB89E29FE234D968E679EB8FE29FE27A
:10562E002FD969E679EB85E39FE22AD969E679EB12
:10563E008BE39FE225D969E679EB81E49FE220D9DD
:10564E00C093E12ED093E22E84EF91E0A0E0B0E083
:10565E008093D92E9093DA2EA093DB2EB093DC2E6E
:10566E001092DD2E1092DE2E1092DF2E1092E02E72
:10567E0023E93FE12093E92E3093EA2E1092D82EA3
:10568E001092EB2E1092EC2E1092ED2E1092EE2E1A
:10569E001092E32E1092E42E1092E52E1092E62E2A
:1056AE0022E030E02093C62E3093C72E48EE53E012
:1056BE0060E070E04093BE2E5093BF2E6093C02EDC
:1056CE007093C12E1092C22E1092C32E1092C42E21
:1056DE001092C52E23E73FE12093CE2E3093CF2E8E
:1056EE001092BD2E1092D02E1092D12E1092D22E3C
:1056FE001092D32E1092C82E1092C92E1092CA2E2E
:10570E001092CB2EC093AB2ED093AC2E8093A32EA3
:10571E009093A42EA093A52EB093A62E1092A72EF2
:10572E001092A82E1092A92E1092AA2E8FE19FE110
:10573E008093B32E9093B42E1092A22E1092B52E6B
:10574E001092B62E1092B72E1092B82E1092AD2E39
:10575E001092AE2E1092AF2E1092B02E1092902E5E
:10576E001092912E1092882E1092892E10928A2EBF
:10577E0010928B2E10928C2E10928D2E10928E2EA9
:10578E0010928F2E87EB94E28093982E9093992E01
:10579E001092872E10929A2E10929B2E10929C2E63
:1057AE0010929D2E1092922E1092932E1092942E55
:1057BE001092952E1092752E1092762E10926D2EAE
:1057CE0010926E2E10926F2E1092702E1092712ECD
:1057DE001092722E1092732E1092742E8AEA92E20A
:1057EE0080937D2E90937E2E10926C2E10927F2E93
:1057FE001092802E1092812E1092822E1092772E61
:10580E001092782E1092792E10927A2E6BE179EBFF
:10581E0086E69EE2DF91CF9133C8CF93DF93CDB76B
:10582E00DEB72D97CDBFDEBF88ED90E084BF90939D
:10583E0061008091020686608093020680910006C8
:10584E00816080930006809102068F7C8065809334
:10585E0002061092E20583E08093E40581E08093D6
:10586E00030A9EEF9093270A9093260A80E880936E
:10587E002D0A80932B0A8093290A80932C0A8093F9
:10588E002A0A8093280A2BE02093000A1092E5053D
:10589E0037E03093810A90938C0A80938D0A25E02D
:1058AE002093800A3093910A90939C0A80939D0ACC
:1058BE002093900A3093A10A9093AC0A8093AD0A7C
:1058CE002093A00A1092A10A8FE79EE38093AC0A60
:1058DE009093AD0A8091A50A81608093A50A1092DB
:1058EE00A00A8091A00A81608093A00A789441E07A
:1058FE0060E08BEB99E20E948D118DE991E080932F
:10590E00EB2F9093EC2F8DEB90E08093E52F9093FF
:10591E00E62F8BE991E08093E72F9093E82F8CE2AE
:10592E0091E08093E92F9093EA2F8091DB2F8B31BA
:10593E0028F444E065EA7FE00E943A108091EB2F54
:10594E009091EC2F0197F1F78091E92F9091EA2F2A
:10595E00892B49F1E0917E29F0917F292FE2EF3CCE
:10596E00F20709F1309739F0A389B4899C918589A2
:10597E00809589238C938091ED2F8E7F8093ED2FD0
:10598E0010927D2910927C298FEC9FE280937E29C4
:10599E0090937F29E091E22FF091E32F80819091F7
:1059AE00E42F892B808340E855E260E070E08BEBBA
:1059BE0099E20E94D921E091F62FF091F72F30E075
:1059CE0020E040E06AE082EF9FE2099582EF9FE2DD
:1059DE000AD9E091F62FF091F72F30E020E040E069
:1059EE006BE082EF9FE20995109288291092872929
:1059FE00109286291092852980918429811120C0C8
:105A0E008091E305807309F02AC162E082E00E9472
:105A1E006A0E62E083E00E946A0E81E08093842920
:105A2E001092832910928229109281291092802936
:105A3E0091EC9093A30893E49093A6088093A50805
:105A4E0087E89EE20E9427158CE69EE20E942715AB
:105A5E0062E088E00E949E0E62E089E00E949E0E47
:105A6E0062E08AE00E949E0E43E061E171E288E00E
:105A7E000E943A1043E069ED70E289E00E943A100C
:105A8E0061E082E10E946A0E61E086E10E946A0E88
:105A9E0061E083E10E946A0E60E083E10E94CD0E18
:105AAE0061E08FE00E946A0E61E080E10E946A0E62
:105ABE0061E081E10E946A0E61E087E10E946A0E58
:105ACE0061E086E10E94CD0E60E08FE00E94CD0E77
:105ADE0060E080E10E94CD0E60E081E10E94CD0E7B
:105AEE0061E087E10E94CD0E8EE390E28093812FDC
:105AFE009093822F8FEA9FE18093932F9093942F10
